:10000000E2C1000007C2000005C2000003C20000F8
:1000100001C20000FFC10000FDC10000FBC10000E3
:10002000F9C10000F7C1000018C50000B9C5000003
:10003000F1C10000EFC10000EDC10000EBC1000004
:10004000E9C10000E7C10000E5C10000E3C1000014
:10005000E1C10000DFC10000DDC1000022C40000DA
:10006000D9C10000D7C10000D5C10000D3C1000034
:10007000D1C10000CFC10000CDC10000CBC1000044
:10008000C9C10000C7C10000C5C10000C3C1000054
:10009000C1C10000BFC10000BDC10000BBC1000064
:1000A000B9C10000B7C10000B5C10000012302239F
:1000B0000423082380230129022904290829402632
:1000C000802640298029102320234023802F402F81
:1000D000202F102F022F012F10292029402C7DFDC9
:1000E0007DFB7DF77DEF7DDF7E7F7EBF7EDF7EEF58
:1000F0007EFD7EFE7DFE0001000045031200020031
:1001000000CD019600220200F002550021020021DC
:10011000020900220300B80238002103003A020954
:100120000022040063025500210400530209000369
:100130000000C9010401030904AF01180203090406
:100140006F013E0303090461010C0403090451011A
:100150000E0E03530065007200690061006C000020
:10016000000C033100320033003400350000003E43
:1001700003530065007200690061006C002B004BA6
:10018000006500790062006F006100720064002B5E
:10019000004D006F007500730065002B004A006F72
:1001A00000790073007400690063006B00000018A0
:1001B000035400650065006E0073007900640075EB
:1001C0000069006E006F0000000403090409029634
:1001D00000050100C032080B0002020201040904FC
:1001E00000000102020100052400100105240100A5
:1001F00001042402060524060001070582031000FD
:100200004009040100020A00000007050302400043
:1002100000070584024000000904020001030101F7
:100220000009211101000122550007058103080082
:100230000109040300010301020009211101000169
:1002400022380007058503080002090404000103A1
:100250000000000921110100012255000705860355
:100260000C000105010904A1011500250175019586
:1002700020050919012920810215002507350046AE
:100280003B01750495016514050109398142050199
:100290000901A100150026FF03750A95040930091C
:1002A00031093209358102C0150026FF03750A9510
:1002B00002093609368102C005010902A1010509BA
:1002C000190129081500250195087501810205010C
:1002D0000930093109381581257F75089503810694
:1002E000050C0A38021581257F750895018106C025
:1002F00005010906A10175019508050719E029E71F
:100300001500250181029508750115002501050CD0
:1003100009E909EA09E209CD09B509B609B709B839
:1003200081029505750105081901290591029501BC
:1003300075039103950675081500257F05071900BB
:10034000297F8100C012010002EF020140C0168720
:1003500004710201020301C106C11280368136C157
:1003600006C1162C5E7460616264346667656E3621
:100370002D3738271E1F202122232425267333766C
:100380002E77785F4445464748494A4B4C4D4E4F7F
:10039000505152535455565758595A5B5C5D2F3142
:1003A00030636D350405060708090A0B0C0D0E0FA6
:1003B000101112131415161718191A1B1C1D6F7122
:1003C00070752A00650A11241FBECFEFDAE0DEBF88
:1003D000CDBF11E0A0E0B1E0E8E1F5E102C0059099
:1003E0000D92AA3BB107D9F721E0AAEBB1E001C019
:1003F0001D92A83DB207E1F711E0C3EED1E004C0C1
:100400002197FE010E94840AC23ED107C9F734D168
:100410000C948A0AF5CDFB0101900020E9F7319791
:10042000AF01461B570BDC01ED91FC910280F3817B
:10043000E02D09940F931F93CF93DF93EC01EBDF33
:100440008C01CE01FFD0800F911FDF91CF911F91C2
:100450000F910895BC018150904E8038910530F481
:1004600088EC91E082D788EC91E085C788EC91E038
:100470007FD7F9CF60E088EC91E07AD788EC91E003
:100480007AC761E371E08EEC91E0D4DF65E070EE55
:1004900088EC91E06AD76AE488EC91E069D788EC4F
:1004A00091E069D762E370E080E090E03AD270E0DA
:1004B00060E088EC91E059D760E088EC91E058D793
:1004C00088EC91E058C70F931F93CF93DF93EC0113
:1004D000E881F0E04ED1FF278E819F818E179F0724
:1004E00089F0FF83EE830FB6F8944091BB015091E1
:1004F000BC016091BD017091BE010FBE4887598754
:100500006A877B870FB6F8944091BB015091BC017C
:100510006091BD017091BE010FBE088519852A85C5
:100520003B85401B510B620B730B43335105610537
:10053000710508F438C08C819D818E179F0799F151
:10054000FD83EC836C857D858EEC91E0EF2B09F5C6
:1005500062DF60E471E08EEC91E06CDF8B818823D8
:1005600099F089819A8176DFE881F0E002D1E1118A
:1005700006C065E070E080E090E0D3D1F5CFDF9178
:10058000CF911F910F9176CFDF91CF911F910F9156
:1005900078CF41DF69E471E08EEC91E0DF91CF919B
:1005A0001F910F9147CFDF91CF911F910F91089528
:1005B00040E855E260E070E08EEC91E06ED663E5D5
:1005C00071E08EEC91E036DF80911C01A9D0809122
:1005D0000E01A6D080910001A3C08CE191E073DFF1
:1005E0008EE091E070DF80E091E06DCF90E080E000
:1005F00008950895CF92DF92EF92FF920F931F9389
:10060000CF93DF936C01EB017B01E40EF51E10E04C
:1006100000E0CE15DF0561F06991D601ED91FC9106
:100620000190F081E02DC6010995080F191FF1CF47
:10063000C801DF91CF911F910F91FF90EF90DF9054
:10064000CF900895CF93DF9300D0CDB7DEB72DE0E4
:1006500029832AE02A83DC01ED91FC910280F38159
:10066000E02D42E050E0BE016F5F7F4F09950F9093
:100670000F90DF91CF91089524D09ADFAEDFFECFA7
:100680001DBA109268001CBC10BE1FBA10927A00EE
:1006900010926E0010926F00109271001092720012
:1006A0001092C900ECEBF0E0108214B817B81AB839
:1006B0001DB810BA108215B818B81BB81EB811BAF8
:1006C0000895F894E1E6F0E020E82083108283E0CA
:1006D00084BD85BDEEE6F0E080818160808381E0AD
:1006E0008093800092E0909381008093900090939B
:1006F00091009093C00094E09093C1008093C20059
:100700008093C3001092C40086E880937A002093FF
:100710007B0010927E0010927D0042D17894089563
:10072000893110F5A5EFA80FAC30F8F4EEEDF0E04C
:10073000AA0FEA0FF11DA591B0E09591ECEAF0E067
:10074000880FE80FF11D3591E491F0E04FB7F89470
:100750008181232F2095282321838281832B8283EB
:10076000EC919E239C934FBF08959FEFB0E0A0E0D3
:10077000E5CFE93130F4EE0FEE0FFF27EB53FC4FDE
:100780000994EE270895E1E00895E3B1E170D9F707
:100790000895E3B1E270B9F70895E3B1E47099F711
:1007A0000895E3B1E87079F70895E3B1E07859F777
:1007B0000895E9B1E17039F70895E9B1E27019F7E8
:1007C0000895E9B1E470F9F60895E9B1E870D9F651
:1007D0000895E6B1E074B9F60895E6B1E07899F6C7
:1007E0000895E9B1E07479F60895E9B1E07859F631
:1007F0000895E3B1E07139F60895E3B1E07219F6B6
:100800000895E3B1E07429F50895EFB1E07809F5B2
:100810000895EFB1E074E9F40895EFB1E072C9F41E
:100820000895EFB1E071A9F40895EFB1E27089F491
:100830000895EFB1E17069F40895E9B1E07149F408
:100840000895E9B1E07229F40895ECB1E07409F477
:100850000895E1E00895F89484B7877F84BF80917C
:1008600060008061809360001092600080E29EE4EE
:100870000197F1F781E08093E00080E28093D80057
:1008800080E69AEE0197F1F7FBDE0C94003FFFCF74
:10089000F894F6DE80E69AEE0197F1F70C940000EA
:1008A000FFCF8F938FB78F938091BA018D5F8D3774
:1008B000D0F48093BA018091BB018F5F8093BB011C
:1008C000D8F08091BC018F4F8093BC01A8F080913B
:1008D000BD018F4F8093BD0178F08091BE018F4F95
:1008E0008093BE0109C08D578093BA018091BB01EE
:1008F0008E5F8093BB0128F78091BF018C5F80934E
:10090000BF0158F08091C0018F4F8093C00128F043
:100910008091C1018F4F8093C1018F918FBF8F91C3
:100920001895CF92DF92EF92FF926B017C0119D064
:100930009B01C114D104E104F10429F4FF90EF906C
:10094000DF90CF9008950DD0621B730B683E73400B
:1009500080F381E0C81AD108E108F10828513C4F22
:10096000E8CF0FB6F89466B515B27091BF018091CB
:10097000C0019091C1010FBE10FE05C06F3F19F07C
:100980007C5F8F4F9F4F11240024660F001C660F61
:10099000001C702908958091E80080FFFCCF089525
:1009A0008091D80087FF02C085FF56C081E0809308
:1009B000D70080EA8093D80082E189BD09B400FEA7
:1009C000FDCF80E98093D8001092E0001092F401EE
:1009D0001092F3011092F2011092EA011092EB01D1
:1009E0001092EC011092ED011092EE011092EF01C5
:1009F0001092F0011092F10181E08093E9019DE7EE
:100A00009093E8011092E7011092E6011092E5013F
:100A10008093E4011092D8011092D9011092DA016A
:100A20001092DB018FE08093DC0190E29093DD0176
:100A300080E88093DE011092DF0122E02093E00144
:100A400028E02093E1019093E2018093E30110926A
:100A5000E1008DE08093E20008951F920F920FB69F
:100A60000F9211242F933F934F935F936F937F9334
:100A70008F939F93AF93BF93EF93FF939091E10078
:100A80001092E10093FF11C01092E90081E0809381
:100A9000EB001092EC0082E38093ED0088E08093FD
:100AA000F0001092F4011092F20192FF47C0809181
:100AB000F401882309F442C08091C601882359F0CB
:100AC00081508093C601811106C084E08093E900C3
:100AD0008AE38093E8008091C501882331F081503A
:100AE0008093C501811101C0B6DE8091E8018823A1
:100AF00029F18091C3018F5F8093C3018370F1F46A
:100B000081E08093E9008091E80085FF17C0809123
:100B1000E7018F5F8093E7012091E80182130EC007
:100B20001092E701EAEEF1E081918093F10081E01B
:100B3000E23FF807C9F78AE38093E80090FF0CC012
:100B400080E18093E2001092F40181E08093F30150
:100B500080EA8093D80019BC8091F301882379F052
:100B600094FF0DC082E189BD09B400FEFDCF80E98C
:100B70008093D8008DE08093E2001092F301FF9102
:100B8000EF91BF91AF919F918F917F916F915F9105
:100B90004F913F912F910F900FBE0F901F9018957E
:100BA0001F920F920FB60F921124EF92FF920F93A4
:100BB0001F932F933F934F935F936F937F938F93E5
:100BC0009F93AF93BF93CF93DF93EF93FF931092D5
:100BD000E9008091E80083FF21C0D091F100C0912D
:100BE000F1000091F1001091F100E090F100F0901F
:100BF000F1002091F1003091F10082EF8093E80044
:100C0000C63009F05AC08DE0E6EFF0E0459155910D
:100C10000417150739F035968150C1F781E28093AA
:100C2000EB002BC045915591E416F50611F0339673
:100C3000F3CF4591559184912F3F310519F010F074
:100C40002FEF30E0821708F4282F3EEF8091E80064
:100C5000982F9570D9F382FD10C0822F213408F0AF
:100C600080E4982F911122C0922F981B892F3093E6
:100C7000E800911119C02034B8F4FF91EF91DF9191
:100C8000CF91BF91AF919F918F917F916F915F9124
:100C90004F913F912F911F910F91FF90EF900F90E7
:100CA0000FBE0F901F901895282FD0CFFA014591B5
:100CB0004093F100AF019150D5CFC53041F48EEF94
:100CC0008093E80068DE00680093E300D6CFC93067
:100CD00011F5D1118CC00093F4011092F201109221
:100CE000C6018EEF8093E80081E0E7E5F3E021E0C4
:100CF0008093E9002093EB0095919093EC009591FF
:100D00009093ED008F5F873099F78EE18093EA0032
:100D10001092EA00B2CFC83049F4D03809F067C069
:100D20003ADE8091F4018093F10010C0C13291F459
:100D3000D13A09F00AC12FDEEAE2F1E08081809326
:100D4000F100319681E0E133F807C1F78EEF80932F
:100D5000E80093CFC03209F03EC0D13209F047C05D
:100D60008091E80082FFFCCFEAE2F1E08091F1009F
:100D70008083319691E0E133F907C1F78BEF8093DF
:100D8000E8008EEF8093E80080912A0190912B017A
:100D9000A0912C01B0912D0186389105A105B105D6
:100DA00021F48FE08093C50168CF86399105A105B4
:100DB000B10509F062CF84E08093E9009FEF809154
:100DC000EE00837009F464DD9093E8008091E80000
:100DD00082FDFCCFF4CFC23231F4D13241F4009322
:100DE000F201D9DDB3CFC332C1F4D132D1F382E005
:100DF000E816F10409F095C0D13A09F051C0C130AC
:100E000009F041C0C8DDEAEEF1E081918093F10084
:100E100091E0E23FF907C9F799CFC11111C0BBDDDD
:100E2000D23849F4E092E900C091EB00C5FBCC2731
:100E3000C0F91092E900C093F1001092F10086CF42
:100E40008C2F8D7F813099F6D23089F601151105EE
:100E500009F062C02E2D2F778FEF820F863008F0B9
:100E60005BC08EEF8093E8002093E900C33009F463
:100E7000D5CE89E18093EB0081E090E001C0880F3E
:100E80002A95EAF743CFC23021F485DD8091E8014D
:100E90004ACFC33009F0C2CE7EDD8091E90143CF55
:100EA000D13209F0BBCEC93061F48091E80082FFF5
:100EB000FCCF8091F1008093E6018BEF8093E800F6
:100EC00045CFCA3029F41093E8011092E7013ECFD4
:100ED000CB3009F0A3CE0093E90138CFC33009F03D
:100EE0009DCE59DD8091E4011ECF94E0E916F10416
:100EF00009F094CED13A09F091CEC13009F08ECEEE
:100F00004ADDE8EDF1E084EE91E021912093F100DB
:100F10008E179F07D1F71ACF82E0E816F10409F483
:100F20007DCE83E0E816F10401F7D13AB9F4C1307F
:100F3000A9F631DD8091E5018093F1001092F10076
:100F40001092F1001092F10078CF92E0E916F104CE
:100F500009F4A6CF83E0E816F10439F6D13209F09E
:100F60005DCECB3009F05ACE0093E401EFCECF93A3
:100F7000DF931F92CDB7DEB76983DC01ED91FC9161
:100F80000280F381E02D41E050E0BE016F5F7F4FB2
:100F900009950F90DF91CF910895FC018FB7F894D8
:100FA0009091F40191110CC090E08FBF20853185A4
:100FB00037FD03C09F3F09F09F5F892F90E00895A0
:100FC00093E09093E9009091F2009111EECF20917F
:100FD000E80022FFE9CF25FDE7CF2BE62093E800CC
:100FE000E4CFCF93DF93EC018885998597FF09C003
:100FF000E881F9810284F385E02DCE010995998776
:10100000888788859985DF91CF9108952091F40193
:10101000222371F02FB7F89433E03093E9003BE6D8
:101020004091E80045FF03C03093E800F9CF2FBF9F
:101030002FEF3FEFFC01318720870895FC012085C9
:10104000318537FD07C04FEF5FEF51874087C901FA
:10105000992708959FB7F8948091F401811104C0F5
:101060009FBF8FEF9FEF089583E08093E9002BE609
:101070008091E80085FD05C082FFF2CF2093E80053
:10108000F7CF8091F1002091E80025FD03C02BE609
:101090002093E8009FBF90E00895BF92CF92DF9227
:1010A000EF92FF920F931F93CF93DF937C01809178
:1010B000F401811110C081E0F701828310E000E0AB
:1010C000C801DF91CF911F910F91FF90EF90DF90BA
:1010D000CF90BF9008952FB7F89484E08093E900F3
:1010E0008091C401882341F08091E80085FD02C011
:1010F0002FBFE1CF1092C40110E000E084E0D82EB1
:1011000090E4C92EA1EFB0E03AE3B32E33E04115ED
:10111000510509F4C0C08091E400815F9091E8001E
:1011200095FD16C02FBF9091E400891306C081E0A1
:101130008093C401F7018283C3CF9091F401911190
:1011400002C081E0F7CF2FB7F894D092E900E6CF44
:101150008091F2009C2D981B9417150611F008F051
:10116000942FE92FF0E04E1B5F0B0E0F1F1FEB01BA
:10117000E0E4E91BE03428F4EE0FFF27EE53F74FCD
:10118000099480C099919C9399919C9399919C9377
:1011900099919C9399919C9399919C9399919C93EB
:1011A00099919C9399919C9399919C9399919C93DB
:1011B00099919C9399919C9399919C9399919C93CB
:1011C00099919C9399919C9399919C9399919C93BB
:1011D00099919C9399919C9399919C9399919C93AB
:1011E00099919C9399919C9399919C9399919C939B
:1011F00099919C9399919C9399919C9399919C938B
:1012000099919C9399919C9399919C9399919C937A
:1012100099919C9399919C9399919C9399919C936A
:1012200099919C9399919C9399919C9399919C935A
:1012300099919C9399919C9399919C9399919C934A
:1012400099919C9399919C9399919C9399919C933A
:1012500099919C9399919C9399919C9399919C932A
:1012600099919C9399919C9399919C9399919C931A
:1012700099919C9399919C9399919C9399919C930A
:1012800099919C93BE018091E80085FFB092E8009F
:101290003093C6013CCF2FBF13CF2FEF3FEFFC01A0
:1012A000318720877DDB0FB6F8948091BB01909148
:1012B000BC01A091BD01B091BE010FBE9C01809107
:1012C000F401882329F068EC70E080E090E029CBFD
:1012D0008091F301882301F10FB6F8944091BB018E
:1012E0005091BC016091BD017091BE010FBE809113
:1012F000F301882389F00FB6F8948091BB01909197
:10130000BC01A091BD01B091BE010FBE841B950B25
:101310008B3F910560F308950FB6F8948091BB015F
:101320009091BC01A091BD01B091BE010FBE821B86
:10133000930B853C994008F4C2CF08956032710543
:1013400040F46A30710569F06B30710561F48BE22D
:1013500008956038710538F46D5B7C4FFB01849112
:10136000089588E2089580E008956093EA01089561
:101370006093EC0108958091F401882309F441C041
:101380008FB7F89491E09093E9009091E4009E5C0F
:1013900021E03091E80035FD0EC08FBF8091F4014F
:1013A000882379F18091E400981759F18FB7F89468
:1013B0002093E900EECF9091EA019093F100909193
:1013C000EB019093F1009091EC019093F1009091DA
:1013D000ED019093F1009091EE019093F1009091C6
:1013E000EF019093F1009091F0019093F1009091B2
:1013F000F1019093F1009AE39093E8001092E701D5
:101400008FBF0895CF93DF93EC0182E066FF80E009
:101410008093EA011092EB016F736093EC011092DC
:10142000ED011092EE011092EF011092F001109276
:10143000F101CE01A0DF1092EA011092EC01CE0181
:10144000DF91CF9198CF6111DDCF0895CF93DF93D6
:10145000EC0167FD0CC01B8270E0CE016FDF682FCE
:10146000CE01F1DF81E090E0DF91CF910895603C03
:10147000D0F46F738B81813039F41B828C819D8114
:101480009C01262BB901E9CF823061F730E4639FDC
:10149000B00111248C819D81682B792B7D836C8315
:1014A00081E08B83DFCF603E38F480E4689FB00139
:1014B0001124607C7770F2CF8FEF603F90F76295D8
:1014C000607F1C826D8382E0ECCFEEECF1E0118650
:1014D0001086128288EE93E0A0E0B0E083839483CC
:1014E000A583B68317828FE991E091838083E8EC2E
:1014F000F1E0128213821482158281EB91E09183D4
:1015000080831092C7010895EE0FFF1F0590F4919C
:08151000E02D0994F894FFCFCF
:10151800034AF00101000100000000006B01024DC8
:10152800F00101000100000000007B010104E0015E
:1015380001000100000000008D0100E10000000032
:101548000852756E6E696E67206D6163726F210057
:101558002070726573736564002072656C656173D1
:101568006564005465656E7379206B6579626F6197
:101578007264206F6E6C696E652E00426C61636BDD
:101588002F424C41434B5F4B455900507572706C6C
:10159800652F505552504C455F4B455900426C756C
:1015A800652F424C55455F4B45590000000000B778
:1015B800074D08F6020608CD071E08F107000000CF
:0A15C80000260AFA02F602F90200FA
:00000001FF
